:020000040800F2
:1000000038080020450100080F0D00081D0C0008ED
:100010000D0D000821070008111D00080000000058
:100020000000000000000000000000009513000820
:100030002307000800000000810D00085914000883
:100040005F0100085F0100085F010008051100085A
:100050005F0100085F010008250700085F01000834
:10006000610700085F0100085F0100085F010008E8
:100070005F0100085F0100085F0100085F010008E0
:100080005F0100085F0100085F0100085F010008D0
:100090005F0100085F0100085F0100089507000884
:1000A0005F0100085F0100085F0100085F010008B0
:1000B000D91400085F0100085F0100085F01000813
:1000C0005F0100085F0100085F0100085F01000890
:1000D0005F010008A51A00085F0100085F01000821
:1000E0005F0100085F0100085F0100085F01000870
:1000F0005F0100085F0100085F0100085F01000860
:100100005F0100085F0100085F0100085F0100084F
:100110005F0100085F0100085F0100085F0100083F
:100120005F0100085F0100085F0100085F0100082F
:10013000DFF80CD000F01EFA00480047A92600089E
:10014000380800200648804706480047FEE7FEE7DB
:10015000FEE7FEE7FEE7FEE7FEE7FEE7FEE7FEE777
:100160008914000831010008421C10F8011B002905
:10017000FBD1801A704730B50B4601460020202283
:10018000012409E021FA02F59D4205D303FA02F5A4
:10019000491B04FA02F52844151EA2F10102F1DC04
:1001A00030BD2DE9F05F0546002092469B4688460B
:1001B0000646814640241BE02846414647462246E3
:1001C00000F0F9F953465A46C01A914110D311462E
:1001D0001846224600F0E0F92D1A67EB01084F4659
:1001E00022460120002100F0D7F917EB00094E410B
:1001F000201EA4F10104DFDC484631462A4643466E
:10020000BDE8F09F2DE9FE4F804681EA0300C00F54
:100210000C46009021F0004123F00045B8EB0200AD
:10022000A94105D24046214690461C460B4602464F
:1002300023F00040104347D0270DC7F30A00C3F353
:100240000A510290401A019040286BDAC3F3130060
:1002500040F4801B0098924620B10023D2EB030AA1
:1002600063EB0B0B01985946C0F14002504600F079
:1002700093F906460D4650465946019A00F0ABF9EF
:1002800010EB08006141002487EA115284EAE77309
:100290001A4340D0009A62B3019A012A4FEA0752EA
:1002A00015DC001B61EB02014FF0004202EA07522D
:1002B000CDE90042001C41F5801132462B4600F08A
:1002C000ABF903B0BDE8F08F40462146F9E7001BCB
:1002D00061EB0201001C41F5801300185B412018FE
:1002E000A2F5001747EB030140EAD570B6196D413E
:1002F00011E06D084FEA360645EAC0754FEA07522D
:10030000001B61EB0201001C41F5801149084FEA16
:1003100030000019514132462B4603B0BDE8F04F82
:1003200000F06BB90098012240000023D0EB0202DC
:1003300063EBE073009821464FEAE074B8EB0000ED
:1003400061EB0401E9E783F000435BE781F00041E2
:1003500058E72DE9FE4F81EA030404F0004421F040
:10036000004100944FF0000B23F0004350EA0104D9
:100370005ED052EA03045BD0C3F30A54C1F30A55BA
:100380002C44A4F2F3340194A0FB0254C1F31301F2
:1003900041F48011C3F3130343F4801301FB0244BF
:1003A00000FB034E840A970A44EA815447EA8357C4
:1003B000A4FB076802958D0A05FB07854FEA932C7D
:1003C00004FB0C542705029D4FEA065847EA1637EE
:1003D000B5EB08056EEB070C870E920E47EA811706
:1003E00042EA8312A7FB0201B6EB0B0164EB0004A7
:1003F0002B0D43EA0C335E1844EB1C50DA46514691
:10040000E7FB0201C5F313044FEA0B3343EA14532D
:100410004FEA0432019C43EA0603A4F10C0402945F
:10042000009CCDE900B400F0F7F803B0BDE8F08F10
:1004300000200146F9E72DE9F04D81EA030404F0BC
:10044000004B21F0004514464FF0000A23F0004114
:1004500050EA050220D054EA01021DD0C5F30A5724
:100460000246C5F31303C1F31300C1F30A5640F467
:10047000801543F48013A7EB0608101BD64608F23C
:10048000FD3873EB050002D308F1010801E0921872
:100490005B41B8F1000F03DA00200146BDE8F08DA2
:1004A00000204FF48011064684460EE0171B73EBC4
:1004B000050705D3121B63EB050306434CEA010C49
:1004C00049084FEA300092185B4150EA0107EDD12C
:1004D00052EA030012D082EA040083EA05010843CD
:1004E00005D0101BAB4106D20122002306E00022FA
:1004F0004FF0004302E06FF0010253101AEB0600C8
:100500004CEB085110EB0A0041EB0B01BDE8F04D3C
:1005100000F073B8C1F30A52C1F3130140F2FF3384
:1005200041F480119A4202DA00200146704740F2FD
:1005300033439A42A2F2334202DC524200F03BB80B
:1005400000F02AB830B5041E71F1000404DB4FF04E
:100550000044404264EB0101141E73F1000405DB0A
:100560001C464FF00043524263EB0403994208BF1C
:10057000904230BD064C074D06E0E06840F00103B4
:1005800094E8070098471034AC42F6D3FFF7D4FD47
:100590000028000820280008202A04DB203A00FA5E
:1005A00002F1002070479140C2F1200320FA03F3CA
:1005B000194390407047202A04DB203A21FA02F0C8
:1005C0000021704721FA02F3D040C2F1200291408D
:1005D000084319467047202A06DBCB17203A41FA18
:1005E00002F043EAE07306E041FA02F3D040C2F1C0
:1005F0002002914008431946704710B5141E73F14C
:10060000000408DA401C41F1000192185B411A43D2
:1006100001D120F0010010BD2DE9F04D92469B461E
:1006200011B1B1FA81F202E0B0FA80F220329046C4
:10063000FFF7B2FF04460F4640EA0A0041EA0B0109
:1006400053465A46084313D0114653EA010019D0C5
:10065000C8F140025046FFF7AEFF05460E46504631
:1006600059464246FFF798FF084305D0012004E0B1
:1006700020463946BDE8F08D0020054346EAE07685
:100680002C4337430A986305E40AA0EB08000022D4
:10069000FD0A44EA47540A3002D500200146E9E742
:1006A000010510196941DDE9084500196941BDE8F6
:1006B000F04DA2E738B50121082000F07BFB1420A3
:1006C0008DF8030003208DF80200074D4FF480746D
:1006D000ADF800406946284600F068F921462846F2
:1006E00000F0E7F938BD0000000C014010B5012012
:1006F00000F078FBBDE81040002000F073BB000064
:1007000008B5024908440090008808BD006C00400C
:1007100008B5024A10440090016008BD006C00401A
:10072000FEE7704770B54FF0E0254024C5F88041E2
:10073000012000F0DFF860B10121074800F0B0F9B6
:10074000064948700121880701F0E5F8012000F012
:1007500053F8C5F8004170BD0008014014000020A6
:1007600010B5042000F0C6F800280ED00421074878
:1007700000F096F9064948700121880701F0CBF88E
:10078000BDE81040042000F037B810BD001401404F
:10079000140000202DE9F0414FF48075284600F048
:1007A000A9F8134E134CAF0558B12946304600F056
:1007B00077F960700121384601F0ADF8284600F065
:1007C0001BF84FF40075284600F094F800280DD06F
:1007D0002946304600F064F960700121384601F086
:1007E0009AF82846BDE8F04100F006B8BDE8F0816F
:1007F000001001401400002001490860704700000B
:100800001404014070B5012186B0084600F0D2FA08
:100810000121084600F0B6FA0021084600F0B2F8BF
:100820000821022000F0AEF80921022000F0AAF809
:100830000221032000F0A6F8002401258DF80840CD
:1008400008268DF8096001958DF80A5001A800F07E
:1008500061F80C208DF809004FF44170019001A857
:1008600000F058F806208DF800008DF801408DF852
:1008700002508DF80350684600F04AFA17208DF8B0
:1008800000008DF8014002208DF802008DF8035021
:10089000684600F03DFA8DF800608DF801400320B5
:1008A0008DF802008DF80350684600F031FA1420EC
:1008B000ADF8100041F61F40ADF80C00AE07ADF8E2
:1008C0001240ADF80E4003A9304601F045F8012270
:1008D0001146304601F035F81C208DF800008DF8E7
:1008E00001408DF802408DF80350684600F010FA80
:1008F00006B070BD064A014600201268044B0A404B
:1009000014331B680B4202D0002A00D0012070472C
:100910000004014030B51A4A8379016853B3136863
:100920008B431360111D0B680468A3430B600179AE
:1009300011440B68046823430B60114B083319689A
:100940000468A14319601C1D21680568A943216042
:100950004179102905D011440A68006802430A60F1
:1009600030BD1968026811431960216800680143AD
:10097000216030BD0079104402688A43026030BDB6
:100980000004014010B58A0721F003040649120F44
:1009900021440F238C6893409C438C608B6890406B
:1009A00003438B6010BD000000000140F0B5CC781F
:1009B000002204F00F03E40601D58C7823430C7861
:1009C0004FF00F0C14F0FF0F4FF0010E1BD0056815
:1009D0000E880EFA02F42640A64210D196000CFAB8
:1009E00006F725EA070703FA06F5CE783D43282ED9
:1009F00002D0482E02D002E0446100E00461521CA3
:100A0000082AE5D305600A88FF2A1CD94468002219
:100A100002F108060EFA06F50E882E40AE420ED1FF
:100A200096000CFA06F7BC4303FA06F7CE783C436F
:100A3000282E00D14561CE78482E00D10561521C88
:100A4000082AE5D34460F0BDF0B5144C002801DA63
:100A5000E36900E06368450D2E0185B2C0F30157DC
:100A6000B540C0F30342032F05D0C6020AD50326C2
:100A70009640B34307E023F07062636823F070632D
:100A8000636002E0AB4343F0706201B12A43002887
:100A900001DAE261F0BD6260F0BD000000000140DB
:100AA0000246002092680A4200D00120704741614E
:100AB0007047016170474FF6FF710180022181701C
:100AC0000421C17070470AB10161704741617047EC
:100AD00038B50121102000F06DF910208DF80300C9
:100AE00003208DF802004FF4E0500B4CADF80000ED
:100AF00069462046FFF75AFF002221152046FFF7DE
:100B0000E2FF0022E1142046FFF7DDFF0022A114DE
:100B10002046FFF7D8FF38BD0010014070B5072808
:100B200017D80C4EC0F38005C0F3400400F001025A
:100B30004FF480613046FFF7C6FF2246F11430467D
:100B4000FFF7C1FF2A46B1143046BDE87040FFF7F9
:100B5000BABF70BD0010014038B50121092000F076
:100B600029F901211048FFF76FFF10208DF80300CD
:100B700003208DF8020038200C4CADF800006946C7
:100B80002046FFF713FF002208212046FFF79BFFB6
:100B9000012210212046FFF796FF00222021204647
:100BA000FFF791FF38BD000000023000000C01404B
:100BB00070B5194E0546002405FA04F0000601D56B
:100BC000012200E0002208213046FFF77CFF0022CE
:100BD00020213046FFF777FF012001F045FD01227B
:100BE00020213046FFF76FFF012001F03DFD641C1E
:100BF000082CE1DB002210213046FFF764FF0120C2
:100C000001F032FD012210213046FFF75CFFBDE804
:100C10007040012001F028BD000C0140FEE7810773
:100C200005D16421B0FBF1F201FB120141B94FF48F
:100C3000C871B0FBF1F201FB120008B1002070474F
:100C40000120704708B50121342000F0B3F8684650
:100C5000FFF731FF28208DF8030003208DF80200F4
:100C60000120ADF8000069460A48FFF79FFE4820C2
:100C70008DF803004FF44070ADF800006946064857
:100C8000FFF794FE0420ADF8000069460348FFF723
:100C90008DFE08BD00080140001001400014014015
:100CA00038B50121102000F085F810208DF80300E0
:100CB00003208DF80200FF20134CADF800006946B8
:100CC0002046FFF773FE01212046FFF7F2FE0221C6
:100CD0002046FFF7EEFE04212046FFF7EAFE08213A
:100CE0002046FFF7E6FE10212046FFF7E2FE202116
:100CF0002046FFF7DEFE40212046FFF7DAFE802186
:100D00002046FFF7D6FE38BD00100140FEE77047D1
:100D100030B50F23C27801780125F2B1144A126868
:100D200001F1E02102F4E062C2F5E062120AC2F1D0
:100D30000404D3404278A24084781C40144322012A
:100D400081F80024007800F01F018D4040098000E8
:100D500000F1E020C0F8005130BD01F01F008540D7
:100D60004809800000F1E020C0F8805130BD00004B
:100D70000CED00E0014908627047000000000E42DF
:100D800070470000044A0029D16901D0014300E006
:100D90008143D1617047000000100240044A0029DD
:100DA000116901D0014300E08143116170470000E7
:100DB00000100240044A0029916901D0014300E07B
:100DC000814391617047000000100240044A0029ED
:100DD000D16801D0014300E08143D1607047000039
:100DE0000010024001490860704700004004424280
:100DF00030B5204A5168204B11F00C0103D0042972
:100E000001D0082901D0036012E05168536801F451
:100E100070114FF0020413F4803F04EB914102D0B3
:100E200053689B0301D5154B00E0134B59430160F8
:100E300051680F2303EA1111114B5C5C0168E1401A
:100E400041605468072505EA14241C5D21FA04F466
:100E50008460546805EAD4241B5DD940C16052689F
:100E6000032303EA9232064B1B1F9A5CB1FBF2F19B
:100E7000016130BD0010024000127A0000093D00FF
:100E800004000020034600205909094A01290AD01C
:100E900002290AD0516A03F01F02012393400B423A
:100EA00000D0012070471168F5E7116AF3E70000F0
:100EB000001002400649002281F8202081F82020FD
:100EC000012802D0042802D1052081F820007047B3
:100ED0000010024001490860704700003C04424293
:100EE00002490A6A02430A62704700000010024089
:100EF00002490A8882430A807047000004280040A3
:100F00001CB5002401214FF0C050FFF73BFF01202A
:100F1000FFF730FF0420FFF7F3FBA82848D0FFF7C6
:100F2000E5FB0120FFF7C6FF02E00A2001F07CFB91
:100F30004120FFF7A7FF20B92046641CE4B2FA283D
:100F4000F3D3FA2C01D301201CBD4FF48070FFF7BE
:100F5000C7FF0120FFF7BEFF00F096F900F09CF9F3
:100F60000121084600F0EEF800F08EF900F040F89C
:100F700047F6FF7000F078F900F086F9002139207B
:100F8000CDE900010123112205214FF4FD6000F09D
:100F9000F5F800F035F8A8210420FFF7B9FB09A007
:100FA00000F0B6FD00F0DAF800F032F800201CBDC9
:100FB00000F072F90121084600F0C4F800F064F96D
:100FC00008A0EDE752544320496E697420666F72A1
:100FD000207468652066697273742074696D652E6B
:100FE0000D0A000052544320496E69742E0D0A0008
:100FF0000248018841F01001018070470428004038
:101000000248018821F01001018070470428004047
:101010002DE9F04100F05CF8DFF8A8800546B0FB50
:10102000F8F32948861C018899422DD0038040F2AC
:10103000B2744FF4B7770FE02046FFF7F0FD38B1F8
:10104000BB4202D3A3F5B77304E0641CA4B205E06D
:10105000A3F26D13641CA4B2BB42EDD2B480002491
:101060001A4F0BE0B088FFF7DAFD08B1012C24D04D
:10107000385D984204D81B1A641CA4B21C2BF1D210
:10108000641CB4715B1CF371B5FBF8F108FB1150E3
:101090004FF46161B0FBF1F23270B0FBF1F201FB91
:1010A00012023C21B2FBF1F27270B0FBF1F201FBD3
:1010B0001200B0700020BDE8F0811D2BE0D31D3B75
:1010C000DAE700008051010028000020F427000822
:1010D000034800880249091F098840EA0140704717
:1010E0001C28004006490988C2B21140044A121F58
:1010F0001288024202D009B10120704700207047D7
:101100000428004010B50120FFF7ECFF08B1FFF7FD
:101110007FFF0220FFF7E6FF28B10220FFF7E8FE7D
:1011200004A000F0F5FC0520FFF7E2FEBDE810404A
:1011300000F0AAB852544320416C61726D2E0D0A22
:1011400000000000044A0029118801D0014300E09A
:1011500081431180704700000028004008B503203B
:101160008DF8000000208DF801008DF802000120AC
:101170008DF803006846FFF7CBFD08BD2DE9F05F51
:101180009A4605460023A0F2B970DDF828B09146D2
:1011900088467B2802D30120BDE8F09F40F2B2745C
:1011A000254E264F08E02046FFF739FD08B13344AD
:1011B00000E03B44641CA4B2AC42F4D3A8F10100AB
:1011C000C6B200241E4FDFF87C800EE0385D40F28E
:1011D000A321484303EBC0132846FFF720FD10B1BD
:1011E000012C00D14344641CE4B2B442EED340F27B
:1011F000A32109FB01F0134903EBC010494201444C
:10120000CAEB4A12C2EB0A2001EB0011CBEB0B1028
:1012100001EB80000B99441801214FF0C050FFF7FB
:10122000B1FD0120FFF7A6FD204600F00DF800F00B
:101230002BF80020B0E700000085E2018033E101D7
:10124000F42700088051010000B50246FFF7D0FEE8
:101250000449100C0880081D02805DF804EBFFF7BC
:10126000CFBE00001828004000B50246FFF7C0FEC0
:101270000449C2F303400880081D02805DF804EBB6
:10128000FFF7BEBE08280040024801888906FCD549
:1012900070470000042800400448018821F008013C
:1012A000018001880907FCD5704700000428004030
:1012B00010B50024E0B2002100F004F8641C082CF2
:1012C000F8DB10BD10B50C46FFF728FC2046BDE842
:1012D0001040FFF76DBC00000FB44FF4807130B5C3
:1012E000C1B045AB6846449A00F014FD694613A0AE
:1012F00000F00EFC00246D46285D2D2815D05F28D7
:1013000017D03038092804D8C1B2E0B2002200F06A
:101310001DF8022001F088F9641CFF2C01D8082C6C
:10132000EADB41B030BC5DF814FBE0B200F00AF833
:10133000EFE7E0B200F020F8EBE7000025730D0ABC
:10134000000000004021FFF7BDBF00003EB507A32D
:10135000092938CB8DE8380006D81DF8011041EA7C
:10136000C211C9B2FFF7AEFF3EBD00003F065B4FA2
:10137000666D7D077F6F00000821FFF7A3BF10B5E2
:10138000FFF7A6FBFFF7E8FB0021BDE81040084689
:10139000FFF798BF704700000CB500222648009266
:1013A0000192016841F4803101604FF4A06301684B
:1013B00001F4003101910099491C0091019911B982
:1013C00000999942F3D10168890333D50121019134
:1013D0001A490A6842F010020A600A6822F0030201
:1013E0000A600A6842F002020A604168416041688E
:1013F0004160416841F480614160416821F47C11A1
:101400004160416841F4E8114160016841F0807138
:10141000016001688901FCD5416821F00301416048
:10142000416841F0020141604168C1F38101022934
:10143000FAD10CBD01920CBD001002400020024008
:101440004FF0E0210428086903D020F0040008616F
:10145000704740F00400FAE77047000010B50446FA
:101460006FF00400FFF7ECFF0649E00800EB4002D4
:101470000870C2EBC0104FF6FF7202EAC00048804D
:1014800010BD0000180000200F4810B5016841F0A1
:101490000101016041680D4A1140416001680C4A38
:1014A00011400160016821F480210160416821F44C
:1014B000FE0141604FF41F018160FFF76DFF054998
:1014C0004FF00060086010BD001002400000FFF8FF
:1014D000FFFFF6FE08ED00E02DE9F0411D4886B063
:1014E00000F11C011EC98DE81E00D0E90210CDE9F3
:1014F000041001218C07204600F017FA002825D09F
:101500000121A046204600F003FA134E00246F4646
:1015100004AD57F8240035F81410FFF7C1FA7178BC
:10152000884208D135F81410012900D000218142E9
:1015300001D1601C3070641C042CEADB00210748D8
:1015400000F007FA0021404600F0E5F906B0BDE8DA
:10155000F0810000C827000814000020000C0040A3
:101560002DE9FC5FE3484FF4FA62DFF88CB3818821
:101570008579B1FBF2F302FB1317C67990F800A04E
:1015800090F8019090F802800024DC490878012846
:1015900006D002280CD0032849D0042874D09CE03F
:1015A0000020641C64B20870052C6EDD0024AFE0DE
:1015B0000020087054B1012C0ED0022C12D0032C44
:1015C0001AD0042C21D0052C28D091E07F1CBFB26A
:1015D000632F00D900279BE06D1CEDB20C2D00D9C4
:1015E0000125BBE0C648761C2844F6B210F8010C71
:1015F000B04200D20126DAE00AF1010000F0FF0A51
:10160000BAF1170F3FD900203CE009F1010000F0CA
:10161000FF09B9F13B0F44D9002041E008F1010076
:1016200000F0FF08B8F13B0F43D9002040E0002054
:10163000087054B1012C0ED0022C13D0032C1BD0F7
:10164000042C25D0052C2DD052E017B17F1EBFB23F
:101650005EE063275CE0012D02D06D1EEDB27DE0FF
:101660000C257BE0012E02D0761EF6B29FE0A44846
:10167000284410F8016C9AE0BAF1000F06D0AAF1E4
:101680000100C0B28246BCE016E026E01720F9E770
:10169000B9F1000F03D0A9F10100C0B200E03B2076
:1016A0008146D4E0B8F1000F04D0A8F10100C0B227
:1016B0008046F8E03B20FBE79049002007F5FA67F9
:1016C0000870CDE90098B8B2534632462946FFF774
:1016D00055FDBDE8FC5FFFF79BBCCCB1012C3DD0B4
:1016E000022C64D0032C7DD0042C7CD0052CE0D0BF
:1016F000032C79DA8248284410F8010CB04200D853
:10170000064633462A4639467EA0FFF7E5FD3CE70C
:1017100001215846FFF7CDF902215846FFF7C9F9D4
:1017200004215846FFF7C5F908215846FFF7C1F9CB
:1017300010215846FFF7BDF920215846FFF7B9F9A7
:1017400040215846FFF7B5F980215846FFF7B1F917
:1017500001215846FFF7ABF9802124E001215846CA
:10176000FFF7A7F902215846FFF7A3F904215846CD
:10177000FFF79FF908215846FFF79BF910215846BB
:10178000FFF797F920215846FFF793F94021584673
:10179000FFF78FF980215846FFF78BF90121584652
:1017A000FFF785F940215846FFF781F9A2E70121AB
:1017B0005846FFF77EF902215846FFF77AF90421CF
:1017C0005846FFF776F908215846FFF772F91021BD
:1017D0005846FFF76EF920215846FFF76AF9402175
:1017E000584602E00DE032E059E0FFF762F980214F
:1017F0005846FFF75EF901215846FFF758F92021B6
:10180000D1E701215846FFF754F902215846FFF766
:1018100050F904215846FFF74CF908215846FFF7C4
:1018200048F910215846FFF744F920215846FFF7A0
:1018300040F940215846FFF73CF980215846FFF710
:1018400038F901215846FFF732F9102124E001212F
:101850005846FFF72EF902215846FFF72AF90421CE
:101860005846FFF726F908215846FFF722F91021BC
:101870005846FFF71EF920215846FFF71AF9402174
:101880005846FFF716F980215846FFF712F9012153
:101890005846FFF70CF908215846FFF708F9434668
:1018A0004A46514630E701215846FFF702F9022126
:1018B0005846FFF7FEF804215846FFF7FAF80821CA
:1018C0005846FFF7F6F810215846FFF7F2F82021A6
:1018D0005846FFF7EEF840215846FFF7EAF8802116
:1018E0005846FFF7E6F801215846FFF7E0F80421D3
:1018F000D2E700002A000020001001401400002060
:10190000F427000825642D25642D256400000000BF
:10191000C943018270470029018802D041F00101CA
:1019200001E021F001010180704702460020138A86
:1019300092890B4202EA010202D0002A00D0012063
:101940007047002A828901D00A4300E08A438281DD
:10195000704781847047000030B502881B4C1C4DD5
:10196000A0420DD0A8420BD0B0F1804F08D0194B47
:10197000984205D0184B984202D0184B984203D198
:1019800022F070034A881A43154B984206D0154B33
:10199000984203D022F44073CA881A4302808A888E
:1019A00082850A880285A0420AD0A84208D00E4A41
:1019B000904205D00D4A904202D00D4A904201D18A
:1019C000097A01860121818230BD0000002C01408E
:1019D000003401400004004000080040000C0040BA
:1019E000001000400014004000400140004401404D
:1019F0000048014070B5044686B0012144F204005D
:101A0000FFF7D8F9254D284600F0B6F86815ADF86F
:101A1000100003208DF812001820214E8DF81300BD
:101A200004A93046FEF7C2FF2815ADF810000420C7
:101A30008DF8130004A93046FEF7B8FF0094002487
:101A4000ADF808400C20ADF80440ADF80A00ADF840
:101A50000640ADF80C406946284600F0FFF8012228
:101A600040F22441284600F0E0F8012240F22551DE
:101A7000284600F0DAF825208DF814008DF815407E
:101A80008DF8164001208DF8170005A8FFF740F9E2
:101A90000121284600F066F806B070BD003801400C
:101AA0000008014070B5174D40F2255631462846D2
:101AB00000F09CF8144C012810D16068B0F5806FDC
:101AC00008D2284600F020F9626810491144521CDF
:101AD000626008703146284600F03EF840F2244625
:101AE0003146284600F082F801280AD1284600F045
:101AF0000BF96068206031462846BDE8704000F070
:101B00002BB870BD003801402000002034000020B8
:101B10000FB44FF4807130B5C1B045AB6846449AFC
:101B200000F0F8F80B4C20886846FEF71DFB82B2E7
:101B300000206B46251D06E021880906FCD5195CAE
:101B40002980401C80B29042F6D341B0D0B230BC64
:101B50005DF814FB003801400A0A01219140C94395
:101B6000018070470029818902D041F4005101E0D1
:101B700021F4005181817047174910B588420AD17C
:101B800001218C032046FFF721F92046BDE81040D3
:101B90000021FFF71BB91149884202D101214C04F1
:101BA00010E00F49884202D101218C040AE00D495E
:101BB000884202D10121CC0404E00B4988420AD1B9
:101BC00001210C052046FFF7E9F82046BDE810404A
:101BD0000021FFF7E3B810BD003801400044004089
:101BE00000480040004C00400050004070B501F03B
:101BF0001F0501260024C1F3421306FA05F2012B4A
:101C00000FD0022B0FD0838A4FEA11210088134294
:101C100006FA01F600EA060001D000B101242046D0
:101C200070BD8389F0E7038AEEE710B5C1F3421374
:101C300001F01F040121A140012B07D0022B07D086
:101C40001430002A026805D00A4304E00C30F8E79B
:101C50001030F6E78A43026010BD000030B504463C
:101C6000008A85B00D464CF6FF710840E9880143B3
:101C70002182A0894EF6F3110840A9882A891143D0
:101C80006A8902431143A181A08A4FF6FF410840AF
:101C9000A9890143A1826846FFF7AAF8194884423E
:101CA00001D1039800E00298A189090400EBC0016A
:101CB00001EB0010296801D5490000E08900B0FB64
:101CC000F1F06422B0FBF2F109010B096FF0180585
:101CD0006B4300EB8300A3891D044FF0320306D54C
:101CE00003EBC000B0FBF2F000F0070005E003EBEF
:101CF0000010B0FBF2F000F00F000843208105B0A7
:101D000030BD0000003801408088C0F308007047F3
:101D1000FEE700007CB5044600201D46164600295B
:101D20000BD0491ECDE90041044B6A462946304696
:101D300000F0D8F8009A002111707CBD132600082D
:101D400002E008C8121F08C1002AFAD17047704784
:101D5000002001E001C1121F002AFBD170470000E2
:101D60002DE9FF5F82B00021DDE90430020DDDF8CE
:101D700040B0034318D044F61050A2F2FF32424361
:101D80001514119801281FD0A5EB0B00401C5FEA29
:101D9000000A4FF000064E4FDFF83891B04650462B
:101DA00015D5CAF1000413E0119801244AA30128B3
:101DB00001D16FEA0B010298119AC0E90031C0E924
:101DC000024206B0BDE8F09FCBF10000DFE7044619
:101DD0000021404A491842EB0450CDE9001012E0BE
:101DE000E00707D032463B4640464946FEF7B1FA87
:101DF0008046894632463B4610461946FEF7A9FA08
:101E000006460F466410002CEAD1DDE90401DDE945
:101E10000023BAF1000F06DAFEF79BFA42464B4662
:101E2000FEF797FA05E0FEF706FB42464B46FEF743
:101E300002FB04460E460022284BFEF783FB03D824
:101E40004FF0FF30014607E00022254B2046314687
:101E5000FEF7D8F9FEF75EFB102409E0002C0ADB40
:101E60000A220023FEF79DF9039B30321A55641EA7
:101E700050EA0102F2D1641C039AC4F11103144424
:101E8000119A012A03D0012208430DD10AE0084328
:101E900004D000204FF0110B119072E7A3EB0B055B
:101EA0006D1E0DE05B4504DD4FF0000205F10105FC
:101EB00004E003DA4FF00002A5F10105002AECD09E
:101EC00002981199C0E90231C0E9004579E70000A4
:101ED000000014400000F03F300000000000F0431C
:101EE0000000E03F2DE9FF4F95B09B46894606462E
:101EF00000250FE2252877D100242746F84A012142
:101F0000059400E0044316F8013F203B01FA03F07A
:101F10001042F7D130782A2811D06FF02F03307893
:101F2000A0F13002092A16D8059A44F0020402EB07
:101F3000820203EB42021044761C0590EFE759F849
:101F4000042B0592002A03DA504244F40054059011
:101F500044F00204761C30782E2816D116F8010FB2
:101F600044F004042A280DD06FF02F023078A0F13D
:101F70003003092B09D807EB870302EB4303C7188B
:101F8000761CF3E759F8047B761C30786C280FD068
:101F900006DC4C2817D068280DD06A2814D104E03C
:101FA000742810D07A280FD10DE044F400140AE010
:101FB00044F4801401E044F440147278824202D167
:101FC00004F58014761C761C307866280BD013DC60
:101FD000582877D009DC002875D04528F6D0462847
:101FE000F4D047281AD19DE118E0632835D0642841
:101FF00079D0652812D195E1702873D008DC672864
:10200000F1D069286FD06E280DD06F2806D1B5E0C9
:1020100073282CD0752875D0782874D05A46179913
:1020200090476D1C75E1C4F30250022809D00328C3
:102030000DD0D9F8001004280DD00D6009F1040965
:1020400067E1D9F80010EA17C1E90052F6E7D9F8BC
:1020500000100D80F2E70D70F0E719F8041B8DF801
:10206000001000208DF80100EA46012003E059F835
:1020700004AB4FF0FF3061074FF0000102D40DE0D8
:1020800008F101018846B9420FDA8045F8DB1AF8F9
:1020900008100029F4D108E008F1010188468142C6
:1020A000FADB1AF808100029F6D105985B46A0EB78
:1020B000080721463846179A00F094FA284400EBA6
:1020C000080507E04DE029E10DE01AF8010B5A463A
:1020D00017999047B8F10108F7D25B462146384678
:1020E000179A13E142E00A220092C4F302524FF021
:1020F000000A022A08D059F804CB032A4FEAEC71EF
:102100000AD00DE029E02AE009F1070121F00702D9
:10211000F2E802C1914609E00FFA8CFC4FEAEC713B
:10212000042A03D14FFA8CFC4FEAEC71002907DA3C
:102130000A460021DCF1000C61EB02012D2202E0D5
:10214000220504D52B228DF80420012203E0E207AA
:1021500001D02022F7E7904659E00A2102E0102240
:102160000DE010214FF0000A00910BE010224FF01B
:10217000000A44F004040827009203E008224FF00C
:10218000000A0092C4F30252022A05D059F804CB87
:102190000021032A08D009E009F1070121F0070214
:1021A000F2E802C1914605E01FFA8CFC042A01D135
:1021B0000CF0FF0C4FF00008220728D5702806D03D
:1021C000009B83F0100353EA0A0305D00EE040227F
:1021D0008DF80420012208E05CEA010206D03022DA
:1021E0008DF804208DF8050002229046009B83F0B4
:1021F000080353EA0A030AD15CEA010201D162072B
:1022000005D530228DF804204FF001087F1E582894
:1022100004D034A003900EA802900DE036A0F9E798
:1022200053466046009AFDF7BCFF84460398825CE3
:102230000298401E029002705CEA0100F0D1029800
:1022400006A9081A00F1200A600702D524F4803498
:1022500000E00127574502DDA7EB0A0000E000205F
:1022600000EB0A01009005984144401A0590E003F4
:1022700006D45B462146179A059800F0B3F9054449
:10228000002706E001A85A46C05D179990476D1CCB
:102290007F1C4745F6DBE0030CD55B462146179AC9
:1022A000059800F09FF9054404E030205A4617993C
:1022B00090476D1C0099481E00900029F5DC08E04D
:1022C000029802995A460078491C02911799904742
:1022D0006D1CBAF10001AAF1010AF1DC65E1000010
:1022E00009280100303132333435363738396162EC
:1022F00063646566000000003031323334353637B0
:1023000038394142434445460000000000F058F986
:102310000544761C307800287FF4ECAD19B02846CF
:10232000BDE8F08F620700D4062709F1070222F00A
:10233000070CFCE80223E14603F000485FEA080CC2
:1023400002D00FF2702C0DE05FEA045C02D50FF2B0
:10235000682C07E05FEAC47C02D00FF2602C01E039
:10236000AFF2700C4FF0FF3823F00043CDF850C0AF
:1023700065280CD006DC452809D046281DD0472802
:102380003DD13DE0662818D067287ED138E0002195
:10239000112F01DB112000E0781CCDE9000106A916
:1023A0000EA8FFF7DDFCDDE90F010E9A0391002175
:1023B000009207F1010A04914DE04FF000400097B0
:1023C000CDE9011006A90EA8FFF7CAFCDDE90F024E
:1023D00003920E9B11990022DDF80CA00093049249
:1023E00011B9791C00EB010AB7EB0A0004D4C0F163
:1023F000FF3007F1010A0490AAEB0700019044E0C6
:10240000012F00DA01270021112F01DD112000E04A
:102410003846CDE9000106A90EA8FFF7A1FCDDE9C9
:102420000F010E9A0391002104910092BA462107F0
:102430000CD40399514500DA8A46BAF1010F05DD43
:10244000009AAAF10101515C302908D0B84202DAA1
:1024500010F1040F06DA0121CDE9011015E0AAF10F
:102460000101E9E7002805DC049901440491AAEB85
:10247000000102E0411C514500DD8A460499401AE2
:10248000401C01904FF000400290200704D40198B6
:10249000504501DBCDF8048000208DF84F000298F4
:1024A0000DF14F07B0F1004F25D02B200E90029870
:1024B0004FF0020800280CDA404202902D200E90C6
:1024C00007E00A210298FDF756FE3031029007F826
:1024D000011DB8F10001A8F10108F2DC0298002802
:1024E000EFD1791E0E980870307800F0200040F08F
:1024F000450007F8020D12A8C01B00F10708149848
:10250000007800B1012000EB0A01019801EBE071B5
:1025100005984144401A401E0590E00306D45B46EE
:102520002146179A059800F05DF805441498007844
:1025300018B15A46179990476D1CE00324D55B46A5
:102540002146179A059800F04DF805441CE00498C0
:10255000002807DBDDE90301884203DD0098405CC9
:10256000179901E0179930205A469047049805F1D1
:102570000105401C04900198401E019004D12E20BA
:102580005A46179990476D1CBAF10001AAF1010A49
:10259000DDDC05E017F8010B5A46179990476D1CD2
:1025A000B8F10001A8F10108F4DC5B462146179A56
:1025B0000598ABE62D0000002B0000002000000075
:1025C0002DE9F041044600251E461746880404D430
:1025D00005E039462020B0476D1C641EF9D5284619
:1025E000BDE8F0812DE9F041044600251E469046E5
:1025F000C80301D5302700E02027880404D505E072
:1026000041463846B0476D1C641EF9D52846BDE8E2
:10261000F0814A68002A06D00A68531C0B601070CB
:102620004868401E48607047F0B50E494FF080770B
:10263000002449884FF0E02248437E1E01250EE029
:10264000B84201D3314600E001464B1E536194610C
:1026500015611369DB03FCD514619461401A0028ED
:10266000EED1F0BD18000020F0B50E494FF0807794
:10267000002409784FF0E02248437E1E01250EE039
:10268000B84201D3314600E001464B1E53619461CC
:1026900015611369DB03FCD514619461401A0028AD
:1026A000EED1F0BD18000020002425464820FEF79A
:1026B000D5FE4FF4E130FFF79DF9FEF721FCFEF760
:1026C0005EFEFEF7BFFAFEF79DF8FEF7E9FAFDF7AA
:1026D000F1FFDFF8CC90DFF8CCB0334EA0464FF4DA
:1026E000807A99F80000012802D0042805D032E051
:1026F000E84389F80080C5B22DE089F800802BA05E
:10270000FFF706FAFEF7D4FD2B4F01213846FEF7FE
:10271000CEF9FEF725FF01213846FEF7CAF902215E
:102720003846FEF7C6F904213846FEF7C2F90821FB
:102730003846FEF7BEF910213846FEF7BAF92021D7
:102740003846FEF7B6F940213846FEF7B2F9802147
:102750003846FEF7AEF914B1012C0AD00EE07078BD
:1027600060B9B07850B951465846FEF7A0F9012437
:1027700004E051465846FEF79CF900244DB1B0885C
:102780004FF4FA61B0FBF1F201FB1201F379B27977
:1027900002E0B3787278317808A0FEF79DFDA0E7DB
:1027A00014000020000C01402A00002054494D452F
:1027B000205345540D0A00000010014025642D25CA
:1027C000642D2564000000000001000204000000E8
:1027D000010000010002040000100140001001404F
:1027E00000140140000801400010014000100140A9
:1027F000001401401F1C1F1E1F1E1F1F1E1F1E1F17
:10280000202800080000002034000000401D0008BF
:10281000542800083400002004080000501D00085F
:102820000204060800000000010203040102030480
:10283000060708090000000000000000000000007A
:102840000000000000000000000000000000000088
:042850000000000084
:0400000508000131BD
:00000001FF
